:020000040000FA
:060000000A128A1110280B
:10000800FE00030EF4000408F5000A08F6007F0855
:10001800F7000A128A11C82D0A128A1113288313AD
:10002800B030FD000630FE00AF30FF00A83084007D
:100038000A128A1197260A128A1183160313A0013D
:10004800A101A201A301A401A501A601A701831290
:100058000313DE01DF01E001E101E201E301E40154
:1000680083010A128A11992B8312031339088039E4
:10007800BE003E08C3003908BE003E07BF003F0867
:10008800C900B81F482849284A28491449080319AB
:100098004E284F285E28490A031D532854285C28F7
:1000A8000030B9000030B8000030B7000030B600AA
:1000B800B81766280030B9000030B8000030B70023
:1000C8000030B6003D088039BE003E08C3063D0832
:1000D800BE003E07BF003F08C400BC1F7428752837
:1000E80076284414440803197A287B288A28440A65
:1000F800031D7F28802888280030BD000030BC0000
:100108000030BB000030BA00BC1792280030BD0098
:100118000030BC000030BB000030BA0044080319AE
:10012800962897289C284908031D9B289C28A528C1
:100138000030B9000030B8000030B7000030B60019
:10014800982B3608BE003E08A8003C080A128A11FF
:100158006A260A128A11831203132908CF00280875
:10016800CE004E08BE00BF01C001C1014108C80051
:100178004008C7003F08C6003E08C5004F08BE003B
:10018800BF01C001C1014108CD004008CC003F08B3
:10019800CB003E08CA003708BE003E08A8003B084E
:1001A8000A128A116A260A128A118312031329086D
:1001B800CF002808CE004E08BE00BF01C001C10113
:1001C8003E08C5073F0803110318013E0319ED282F
:1001D800C607400803110318013E0319F428C7078E
:1001E800410803110318013E0319FB28C8074F08EB
:1001F800BE00BF01C001C1013E08CA073F08031184
:100208000318013E03190929CB07400803110318F5
:10021800013E03191029CC07410803110318013EB8
:1002280003191729CD073808BE003E08A8003A0868
:100238000A128A116A260A128A11831203132908DC
:10024800CF002808CE004E08BE00BF01C001C10182
:100258003E08C5073F0803110318013E0319352955
:10026800C607400803110318013E03193C29C707B4
:10027800410803110318013E03194329C8074F0811
:10028800BE00BF01C001C1013E08CA073F080311F3
:100298000318013E03195129CB074008031103181D
:1002A800013E03195829CC07410803110318013EE0
:1002B80003195F29CD070830BE000310C50DC60D10
:1002C800C70DC80DBE0B61293708BE003E08A8003F
:1002D8003A080A128A116A260A128A11831203132B
:1002E8002908CF002808CE004E08BE004F08BF00DE
:1002F800C001C1013E08C5073F0803110318013EAC
:1003080003198729C607400803110318013E03197A
:100318008E29C707410803110318013E03199529BF
:10032800C8073608BE003E08A8003B080A128A1112
:100338006A260A128A11831203132908CF00280893
:10034800CE004E08BE004F08BF00C001C1013E08E4
:10035800C5073F0803110318013E0319B429C6074E
:10036800400803110318013E0319BB29C7074108B8
:1003780003110318013E0319C229C8070830BE003B
:100388000310C50DC60DC70DC80DBE0BC429360810
:10039800BE003E08A8003A080A128A116A260A1204
:1003A8008A11831203132908CF002808CE004E08AB
:1003B800BE004F08BF00C001C1013E08C5073F0885
:1003C80003110318013E0319EA29C607400803115F
:1003D8000318013E0319F129C7074108031103183F
:1003E800013E0319F829C8073708BE003E08A800CF
:1003F8003C080A128A116A260A128A118312031308
:100408002908CF002808CE004E08BE004F08BF00BC
:10041800C001C1013E08CA073F0803110318013E85
:100428000319172ACB07400803110318013E0319C3
:100438001E2ACC07410803110318013E0319252A77
:10044800CD073808BE003E08A8003B080A128A11EA
:100458006A260A128A11831203132908CF00280872
:10046800CE004E08BE004F08BF00C001C1013E08C3
:10047800CA073F0803110318013E0319442ACB0792
:10048800400803110318013E03194B2ACC07410801
:1004980003110318013E0319522ACD073808BE007C
:1004A8003E08A8003C080A128A116A260A128A1114
:1004B800831203132908CF002808CE004E08BE0077
:1004C8004F08BF00C001C10108300310BE0DBF0DA9
:1004D800C00DC10DFF3E031D692A3E08CA073F082B
:1004E80003110318013E03197A2ACB0740080311A8
:1004F8000318013E0319812ACC0741080311031888
:10050800013E0319882ACD074508BE004608BF00EA
:100518004708C0004808C10018300310C10CC00CBF
:10052800BF0CBE0CFF3E031D912A3E08CA073F08B8
:1005380003110318013E0319A22ACB07400803112F
:100548000318013E0319A92ACC074108031103180F
:10055800013E0319B02ACD070830BE000310C50DAF
:10056800C60DC70DC80DBE0BB22A49084407BE0008
:10057800BF01BF0D3E08823ECE003F080318013E72
:10058800FF3ECF00E42A0130BE000310CA0DCB0D98
:10059800CC0DCD0DBE0BC92AC81FD32AD42AD52A03
:1005A8004A140130BE000310C50DC60DC70DC80D95
:1005B800BE0BD72AFF30CE070318CF0AFF30CF076C
:1005C800CC1FE72AE82AC72AC401C81FEC2AED2A4B
:1005D800092BFF304505BE00FF304605BF00FF3040
:1005E8004705C0007F304805C100410840043F046A
:1005F8003E040319002B012B042BC401C40A092B48
:100608004A1C072B082B092B012B440803190D2B17
:100618000E2B3F2B0130CA07003003180130CB07DF
:10062800003003180130CC07003003180130CD0723
:100638004D1C1F2B202B3F2B4A08BE004B08BF0028
:100648004C08C0004D08C1000130C200410DC10C6A
:10065800C00CBF0CBE0CC20B2A2B4108CD004008B1
:10066800CC003F08CB003E08CA000130CE07031873
:10067800CF0A0030CF074F08803AFF0080307F0252
:10068800031D482BFF304E02031C4B2B4C2B572BC2
:100698007F3083120313CD008030CC000030CB00B4
:1006A8000030CA008C2B831203134F08803AFF00D6
:1006B80080307F02031D622B01304E020318652B28
:1006C800662B722B003083120313CD000030CC0050
:1006D8000030CB000030CA00C3018C2B83120313F7
:1006E8004E08BE003E08C900FF30CA05FF30CB05E2
:1006F8007F30CC050030CD05491C832B842B852BFE
:10070800CC174908BE0003103E0CBF003F08CD00BF
:100718004308BE003E08CD044D08B9004C08B80097
:100728004B08B7004A08B6000800043083160313C4
:100738008100F8308312031381008B168B170B1777
:100748008316031387018312031387010A128A1180
:10075800A6260A128A1183160313B201B30183165F
:100768000313320883120313DB005B07A03E8400E7
:100778008313000883160313B000840A0008B1002D
:1007880032080A128A113C260A128A1183120313AC
:100798002908E3002808E2006208A8006308A90005
:1007A8000030A91BFF30AA00AB0001300A128A11E1
:1007B80090240A128A11831203132B08BD002A08F9
:1007C800BC002908BB002808BA003D30B900C73072
:1007D800B800E230B7008230B6000A128A11382019
:1007E8000A128A11831203133908D3003808D20079
:1007F8003708D1003608D0000A128A114C250A128F
:100808008A11831203135108DF005008DE005E08C6
:10081800A8005F08A9000030A91BFF30AA00AB00A0
:1008280001300A128A1190240A128A1183120313C2
:100838002B08BD002A08BC002908BB002808BA00FC
:100848003E30B900CC30B800CC30B700CD30B6005F
:100858000A128A1138200A128A11831203133908DE
:10086800D3003808D2003708D1003608D0000A1261
:100878008A114C250A128A1183160313320883122F
:100888000313DB005B07A03E84005008831380003D
:10089800840A510880008316031332088312031355
:1008A800DB005B07A03E84000008DC00840A000827
:1008B800DD00831603133108831203135D06031D3D
:1008C8006B2C831603133008831203135C06031979
:1008D8006E2C6F2C772C83160313320883120313A4
:1008E800DB005B08E400013083160313B20703182A
:1008F800B30A0030B3073308803AFF0080307F0224
:10090800031D882C04303202031C8B2C8C2CB32B37
:10091800AF2B0A128A11102883120313B000300873
:100928000319972C982CAC2CAB1F9B2C9C2CAC2C13
:100938002809B2002909B3002A09B4002B09B50017
:10094800B20A0319B30A0319B40A0319B50AB42C75
:100958002B08B5002A08B4002908B3002808B200FB
:100968002B082A0429042804031DBB2CBC2CC52CE5
:100978000030AB000030AA000030A9000030A80009
:100988004B2D9630AC002C08B100D72C0130AC00B0
:100998002C08B10701300310B50CB40CB30CB20C21
:1009A800FF3E031DCF2CFE303505031DDC2CDD2C4E
:1009B800CA2CF92C0130AC002C08B1070130B20761
:1009C800003003180130B307003003180130B407B2
:1009D800003003180130B50701300310B50CB40C12
:1009E800B30CB20CFF3E031DF12CFF303505031D7F
:1009F800FE2CFF2CDE2C0B2D0130B1020130AC0097
:100A08000310B20DB30DB40DB50DAC0B042DB41B12
:100A18000E2D0F2D152D023031020318142D152D12
:100A2800002D3118182D192D212DFF30B205FF305A
:100A3800B3057F30B405FF30B5050310B10C31089C
:100A4800AC00AD01AE01AF0118300310AC0DAD0D17
:100A5800AE0DAF0DFF3E031D292D2C08B2042D0845
:100A6800B3042E08B4042F08B504300803193D2D2B
:100A78003E2D432DAB1F412D422D432DB517350873
:100A8800AB003408AA003308A9003208A8000800FF
:100A9800031083120313520D530DD4005408DA00C7
:100AA8005A08031D582D592D622D0030D3000030EF
:100AB800D2000030D1000030D000C72D5008D4003B
:100AC8005108D5005208D6005308D7001F3003102C
:100AD800D70CD60CD50CD40CFF3E031D6B2D540837
:100AE800D8005808D900D217FF30D005FF30D105FB
:100AF800FF30D2050030D3059630DA02DA1F852D93
:100B0800862DA02D5A08803A973E03188C2D8D2DDE
:100B18008E2D592D01300310D30CD20CD10CD00CD2
:100B2800FF3E031D8F2D0130D4005408DA07031D42
:100B38009E2D9F2D8E2DB72D20305A02031CA52DDA
:100B4800A62DB22D592D0130D4000310D00DD10D92
:100B5800D20DD30DD40BA92D0130DA025A08031D8A
:100B6800B62DB72DA72D59080319BB2DBC2DC72DA0
:100B7800D009D109D209D309D00A0319D10A031916
:100B8800D20A0319D30A08000B1DCB2DCC2DD72D63
:100B9800F8308312031381000B110130E0070318AA
:100BA800E10A0030E10720308400A830F000040892
:100BB800F1000830F2007008840083130008F30085
:100BC800F00A7108840073088000F10AF20BDF2D27
:100BD800831203136108803AFF0081307F02031DEE
:100BE800F72D90306002031CFA2DFB2DFF2D831288
:100BF8000313E001E101831203136408F000700796
:100C0800A03E840083130008F100840A0008F20063
:100C18007208803AF3006108803A7302031D162EA9
:100C280060087102031C192E1A2E262E8312031334
:100C38006408F0007007203E84008313000807044E
:100C48008700312E831203136408F0007007203EDA
:100C5800840083130009070587007708FF007608DA
:100C68008A0075088400740E8300FE0E7E0E09004B
:100C780083120313AC000130AA002A089F052C0830
:100C8800AA0002300310AA0DFF3E031D462E0310D2
:100C98002A0DAB002B089F040D3083120313AB0001
:100CA800FB30AA00AA0B562EAB0B562E8312031349
:100CB8001F151F19602E612E5D2E1E08A9008316B0
:100CC80003131E0883120313A800080083120313DA
:100CD800B000AC01AD012808AA00AB012A08AE009B
:100CE8002B08AF00301C792E7A2E802E2E08AC07E8
:100CF8000318AD0A2F08AD0701300310AE0DAF0D74
:100D0800FF3E031D812E0310B00C3008031D8D2EED
:100D18008E2E762E2D08A9002C08A80008007E0823
:100D28008A007F0882000A128A1193260A128A1101
:100D38008000840A04087D0603190034FF0A031999
:100D4800FE0A972E4130831203139F00C03083168A
:100D580003139F00080001340034023400340434C3
:060D6800003408340034E1
:02400E00723FFF
:00000001FF
