:060000000A128A1110280B
:10000800FE00030EF4000408F5000A08F6007F0855
:10001800F7000A128A11B72E0A128A1113288313BD
:10002800B030FD000E30FE001D30FF00A830840007
:100038000A128A1529260A128A1183160313A001A7
:10004800A101A201A301A401A501A601A701831290
:100058000313DE01DF01E001E101E201E301E40154
:1000680083010A128A11992B8312031339088039E4
:10007800BE003E08C3003908BE003E07BF003F0867
:10008800C900B81F482849284A28491449080319AB
:100098004E284F285E28490A031D532854285C28F7
:1000A8000030B9000030B8000030B7000030B600AA
:1000B800B81766280030B9000030B8000030B70023
:1000C8000030B6003D088039BE003E08C3063D0832
:1000D800BE003E07BF003F08C400BC1F7428752837
:1000E80076284414440803197A287B288A28440A65
:1000F800031D7F28802888280030BD000030BC0000
:100108000030BB000030BA00BC1792280030BD0098
:100118000030BC000030BB000030BA0044080319AE
:10012800962897289C284908031D9B289C28A528C1
:100138000030B9000030B8000030B7000030B60019
:10014800982B3608BE003E08A8003C080A128A15FB
:100158009D260A128A11831203132908CF00280842
:10016800CE004E08BE00BF01C001C1014108C80051
:100178004008C7003F08C6003E08C5004F08BE003B
:10018800BF01C001C1014108CD004008CC003F08B3
:10019800CB003E08CA003708BE003E08A8003B084E
:1001A8000A128A159D260A128A1183120313290836
:1001B800CF002808CE004E08BE00BF01C001C10113
:1001C8003E08C5073F0803110318013E0319ED282F
:1001D800C607400803110318013E0319F428C7078E
:1001E800410803110318013E0319FB28C8074F08EB
:1001F800BE00BF01C001C1013E08CA073F08031184
:100208000318013E03190929CB07400803110318F5
:10021800013E03191029CC07410803110318013EB8
:1002280003191729CD073808BE003E08A8003A0868
:100238000A128A159D260A128A11831203132908A5
:10024800CF002808CE004E08BE00BF01C001C10182
:100258003E08C5073F0803110318013E0319352955
:10026800C607400803110318013E03193C29C707B4
:10027800410803110318013E03194329C8074F0811
:10028800BE00BF01C001C1013E08CA073F080311F3
:100298000318013E03195129CB074008031103181D
:1002A800013E03195829CC07410803110318013EE0
:1002B80003195F29CD070830BE000310C50DC60D10
:1002C800C70DC80DBE0B61293708BE003E08A8003F
:1002D8003A080A128A159D260A128A1183120313F4
:1002E8002908CF002808CE004E08BE004F08BF00DE
:1002F800C001C1013E08C5073F0803110318013EAC
:1003080003198729C607400803110318013E03197A
:100318008E29C707410803110318013E03199529BF
:10032800C8073608BE003E08A8003B080A128A150E
:100338009D260A128A11831203132908CF00280860
:10034800CE004E08BE004F08BF00C001C1013E08E4
:10035800C5073F0803110318013E0319B429C6074E
:10036800400803110318013E0319BB29C7074108B8
:1003780003110318013E0319C229C8070830BE003B
:100388000310C50DC60DC70DC80DBE0BC429360810
:10039800BE003E08A8003A080A128A159D260A12CD
:1003A8008A11831203132908CF002808CE004E08AB
:1003B800BE004F08BF00C001C1013E08C5073F0885
:1003C80003110318013E0319EA29C607400803115F
:1003D8000318013E0319F129C7074108031103183F
:1003E800013E0319F829C8073708BE003E08A800CF
:1003F8003C080A128A159D260A128A1183120313D1
:100408002908CF002808CE004E08BE004F08BF00BC
:10041800C001C1013E08CA073F0803110318013E85
:100428000319172ACB07400803110318013E0319C3
:100438001E2ACC07410803110318013E0319252A77
:10044800CD073808BE003E08A8003B080A128A15E6
:100458009D260A128A11831203132908CF0028083F
:10046800CE004E08BE004F08BF00C001C1013E08C3
:10047800CA073F0803110318013E0319442ACB0792
:10048800400803110318013E03194B2ACC07410801
:1004980003110318013E0319522ACD073808BE007C
:1004A8003E08A8003C080A128A159D260A128A11DD
:1004B800831203132908CF002808CE004E08BE0077
:1004C8004F08BF00C001C10108300310BE0DBF0DA9
:1004D800C00DC10DFF3E031D692A3E08CA073F082B
:1004E80003110318013E03197A2ACB0740080311A8
:1004F8000318013E0319812ACC0741080311031888
:10050800013E0319882ACD074508BE004608BF00EA
:100518004708C0004808C10018300310C10CC00CBF
:10052800BF0CBE0CFF3E031D912A3E08CA073F08B8
:1005380003110318013E0319A22ACB07400803112F
:100548000318013E0319A92ACC074108031103180F
:10055800013E0319B02ACD070830BE000310C50DAF
:10056800C60DC70DC80DBE0BB22A49084407BE0008
:10057800BF01BF0D3E08823ECE003F080318013E72
:10058800FF3ECF00E42A0130BE000310CA0DCB0D98
:10059800CC0DCD0DBE0BC92AC81FD32AD42AD52A03
:1005A8004A140130BE000310C50DC60DC70DC80D95
:1005B800BE0BD72AFF30CE070318CF0AFF30CF076C
:1005C800CC1FE72AE82AC72AC401C81FEC2AED2A4B
:1005D800092BFF304505BE00FF304605BF00FF3040
:1005E8004705C0007F304805C100410840043F046A
:1005F8003E040319002B012B042BC401C40A092B48
:100608004A1C072B082B092B012B440803190D2B17
:100618000E2B3F2B0130CA07003003180130CB07DF
:10062800003003180130CC07003003180130CD0723
:100638004D1C1F2B202B3F2B4A08BE004B08BF0028
:100648004C08C0004D08C1000130C200410DC10C6A
:10065800C00CBF0CBE0CC20B2A2B4108CD004008B1
:10066800CC003F08CB003E08CA000130CE07031873
:10067800CF0A0030CF074F08803AFF0080307F0252
:10068800031D482BFF304E02031C4B2B4C2B572BC2
:100698007F3083120313CD008030CC000030CB00B4
:1006A8000030CA008C2B831203134F08803AFF00D6
:1006B80080307F02031D622B01304E020318652B28
:1006C800662B722B003083120313CD000030CC0050
:1006D8000030CB000030CA00C3018C2B83120313F7
:1006E8004E08BE003E08C900FF30CA05FF30CB05E2
:1006F8007F30CC050030CD05491C832B842B852BFE
:10070800CC174908BE0003103E0CBF003F08CD00BF
:100718004308BE003E08CD044D08B9004C08B80097
:100728004B08B7004A08B6000800043083160313C4
:100738008100F8308312031381008B168B170B1777
:100748008316031387018312031387018316031388
:1007580088018312031388010A128A154C270A128A
:100768008A110A128A11F7270A128A1183160313AB
:10077800B401B50183160313340883120313DB0095
:100788005B07A03E84008313000883160313B000A0
:10079800840A0008B10034080A128A15C6260A120B
:1007A8008A11831203132908E3002808E20062086B
:1007B800A8006308A9000030A91BFF30AA00AB00FD
:1007C80001300A128A117F250A128A118312031333
:1007D8002B08BD002A08BC002908BB002808BA005D
:1007E8003D30B900C730B800E230B7008230B600FB
:1007F8000A128A1138200A128A118312031339083F
:10080800D3003808D2003708D1003608D0000A12C1
:100818008A113B260A128A11831203135108DF003A
:100828005008DE005E08A8005F08A9000030A91B78
:10083800FF30AA00AB0001300A128A117F250A1284
:100848008A11831203132B08BD002A08BC0029084B
:10085800BB002808BA003E30B900CC30B800CC3014
:10086800B700CD30B6000A128A1138200A128A1150
:10087800831203133908D3003808D2003708D1008F
:100888003608D0000A128A113B260A128A118316EA
:100898000313340883120313DB005B07A03E8400B4
:1008A800500883138000840A5108800083160313BC
:1008B800340883120313DB005B07A03E84000008A2
:1008C800DC00840A0008DD00831603133108831254
:1008D80003135D06031D762C831603133008831259
:1008E80003135C060319792C7A2C822C83160313C4
:1008F800340883120313DB005B08E4000B30DB00D1
:100908005B08AC0002300A128A15F4260A128A1112
:1009180010300A128A1574260A128A1183120313D8
:100928006408303E0A128A1194270A128A11831623
:10093800031334083504031DA22CA32CB42C8312F2
:100948000313AC01AC0A01300A128A15F4260A1204
:100958008A1101300A128A1574260A128A11192D71
:1009680034033504031DB92CBA2CCD2C0630831260
:100978000313DB005B08AC0001300A128A15F42669
:100988000A128A1104300A128A1574260A128A1168
:10099800192D023034063504031DD32CD42CE72C32
:1009A8000B3083120313DB005B08AC0001300A1222
:1009B8008A15F4260A128A1107300A128A15742633
:1009C8000A128A11192D033034063504031DED2C43
:1009D800EE2CFF2C83120313AC01AC0A02300A126E
:1009E8008A15F4260A128A110A300A128A15742600
:1009F8000A128A11192D043034063504031D052DF9
:100A0800062D192D063083120313DB005B08AC009A
:100A180002300A128A15F4260A128A110D300A12B7
:100A28008A1574260A128A11192D0A3083120313A3
:100A3800B1000030B2005F08B4005E08B3000A12CB
:100A48008A15A5270A128A11831203133108DB00BD
:100A58005B0883160313B2000A3083120313B10034
:100A68000030B2000A30A8000030A9005F08AB00CF
:100A78005E08AA000A128A112B270A128A11831209
:100A880003132908B4002808B3000A128A15A527F9
:100A98000A128A11831203133108DB005B088316DC
:100AA8000313B3003308303E0A128A1194270A123E
:100AB8008A11831603133208303E0A128A119427CA
:100AC8000A128A11013083160313B4070318B50AF2
:100AD8000030B5073508803AFF0080307F02031DDB
:100AE800772D04303402031C7A2D7B2DBE2BBA2BB4
:100AF8000A128A11102883120313B0003008031950
:100B0800862D872D9B2DAB1F8A2D8B2D9B2D28097C
:100B1800B2002909B3002A09B4002B09B500B20AAA
:100B28000319B30A0319B40A0319B50AA32D2B082C
:100B3800B5002A08B4002908B3002808B2002B0819
:100B48002A0429042804031DAA2DAB2DB42D003036
:100B5800AB000030AA000030A9000030A8003A2EEF
:100B68009630AC002C08B100C62D0130AC002C0822
:100B7800B10701300310B50CB40CB30CB20CFF3E36
:100B8800031DBE2DFE303505031DCB2DCC2DB92DF3
:100B9800E82D0130AC002C08B1070130B207003055
:100BA80003180130B307003003180130B4070030D0
:100BB80003180130B50701300310B50CB40CB30CA1
:100BC800B20CFF3E031DE02DFF303505031DED2D52
:100BD800EE2DCD2DFA2D0130B1020130AC000310FD
:100BE800B20DB30DB40DB50DAC0BF32DB41BFD2D2B
:100BF800FE2D042E023031020318032E042EEF2D91
:100C08003118072E082E102EFF30B205FF30B3051D
:100C18007F30B405FF30B5050310B10C3108AC00C6
:100C2800AD01AE01AF0118300310AC0DAD0DAE0D26
:100C3800AF0DFF3E031D182E2C08B2042D08B30477
:100C48002E08B4042F08B504300803192C2E2D2EB5
:100C5800322EAB1F302E312E322EB5173508AB0091
:100C68003408AA003308A9003208A80008000310B5
:100C780083120313520D530DD4005408DA005A0896
:100C8800031D472E482E512E0030D3000030D200CD
:100C98000030D1000030D000B62E5008D4005108E2
:100CA800D5005208D6005308D7001F300310D70CC0
:100CB800D60CD50CD40CFF3E031D5A2E5408D80070
:100CC8005808D900D217FF30D005FF30D105FF30C2
:100CD800D2050030D3059630DA02DA1F742E752E4D
:100CE8008F2E5A08803A973E03187B2E7C2E7D2E35
:100CF800482E01300310D30CD20CD10CD00CFF3E7F
:100D0800031D7E2E0130D4005408DA07031D8D2EF2
:100D18008E2E7D2EA62E20305A02031C942E952E40
:100D2800A12E482E0130D4000310D00DD10DD20DC4
:100D3800D30DD40B982E0130DA025A08031DA52EC4
:100D4800A62E962E59080319AA2EAB2EB62ED00918
:100D5800D109D209D309D00A0319D10A0319D20A31
:100D68000319D30A08000B1DBA2EBB2EC62EF83065
:100D78008312031381000B110130E0070318E10A05
:100D88000030E10720308400A830F0000408F100AA
:100D98000830F2007008840083130008F300F00A9A
:100DA8007108840073088000F10AF20BCE2E8312BA
:100DB80003136108803AFF0081307F02031DE62E8D
:100DC80090306002031CE92EEA2EEE2E83120313E4
:100DD800E001E101831203136408F0007007A03EEC
:100DE800840083130008F100840A0008F2007208E6
:100DF800803AF3006108803A7302031D052F6008EA
:100E08007102031C082F092F152F8312031364087E
:100E1800F0007007203E8400831300080704870051
:100E2800202F831203136408F0007007203E84000B
:100E380083130009070587007708FF0076088A00F2
:100E480075088400740E8300FE0E7E0E090083125E
:100E58000313AE01A91F312F322F392FA809A90971
:100E6800A80A0319A90AAE01AE0AAB1F3C2F3D2FF1
:100E7800462FAA09AB09AA0A0319AB0A0130AC002C
:100E88002C08AE06AF01B0012808290403194D2F1C
:100E98004E2F852FAD01AD0A5C2F01300310A80D30
:100EA800A90DFF3E031D522F0130AC002C08AD07E1
:100EB800A91F5F2F602F512F01300310AF0DB00D08
:100EC800FF3E031D612F29082B02031D6D2F2808E3
:100ED8002A02031C702F712F782F2808AA022908CC
:100EE800031CAB03AB022F1401300310A90CA80C90
:100EF800FF3E031D792F0130AD02031D842F852F7E
:100F0800602F2E080319892F8A2F8F2FAF09B00958
:100F1800AF0A0319B00A3008A9002F08A800080072
:100F280083120313AC002C080F39A9002908AA0062
:100F38002C08F039A9002908AB0008142B08A900CF
:100F480004300310A90CFF3E031DA52F29080A121F
:100F58008A1554260A128A1183120313881433300F
:100F6800AD008230AE000000FF3083120313AD07DE
:100F78000318AE0AFF30AE072E08803AFF00803013
:100F88007F02031DC92F01302D02031CCC2FCD2F4A
:100F9800B72F8312031388102A080A128A155426B9
:100FA8000A128A118312031388143330AF00823077
:100FB800B0000000FF3083120313AF070318B00A14
:100FC800FF30B0073008803AFF0080307F02031DF1
:100FD800EF2F01302F02031CF22FF32FDD2F831286
:100FE8000313881008004130831203139F00C03098
:100FF800831603139F00080008308A000408840A37
:101008008207003441343A34003442343A340034EC
:1010180043343A34003444343A34003445343A34AE
:08102800003453343A34003463
:101C3A0001340034023400340434003408340034EB
:101C4A007E088A007F0882000A128A1525260A124F
:101C5A008A158000840A04087D0603190034FF0AE5
:101C6A000319FE0A292E83120313AB0008102B084E
:101C7A000A128A1554260A128A1583120313881423
:101C8A001A3083120313AA00F730A900A90B4B2EAE
:101C9A00AA0B4B2E502E83120313881008008312AE
:101CAA000313A800281C5A2E5B2E5D2E08155E2EE3
:101CBA000811A81C612E622E642E8815652E8811C3
:101CCA00281D682E692E6B2E08166C2E0812A81D68
:101CDA006F2E702E722E8816732E881208008312A9
:101CEA000313B300B101B2018F2E31083307840008
:101CFA000A128A1500200A128A150A128A119427D2
:101D0A000A128A15013083120313B1070318B20AA3
:101D1A000030B2073108330784000A128A150020FE
:101D2A000A128A15003A031D9B2E9C2E7A2E080051
:101D3A0083120313B000AC01AD012808AA00AB015D
:101D4A002A08AE002B08AF00301CAC2EAD2EB32EE5
:101D5A002E08AC070318AD0A2F08AD07013003108F
:101D6A00AE0DAF0DFF3E031DB42E0310B00C3008AC
:101D7A00031DC02EC12EA92E2D08A9002C08A800CB
:101D8A00080083120313AC000130AA002A089F0539
:101D9A002C08AA0002300310AA0DFF3E031DD02E04
:101DAA0003102A0DAB002B089F040D308312031376
:101DBA00AB00FB30AA00AA0BE02EAB0BE02E83127D
:101DCA0003131F151F19EA2EEB2EE72E1E08A90072
:101DDA00831603131E0883120313A8000800831234
:101DEA000313AF002F03031DFB2EFC2E212F2C08FB
:101DFA007F3EAD002D08B2003208AD00043003105A
:101E0A00AD0CFF3E031D042F2D08AE002E08B000B6
:101E1A0032080F39AD002D08B10030080A128A15B0
:101E2A0038260A128A158312031331080A128A15F0
:101E3A0038260A128A154B2F02302F06031D262F29
:101E4A00272F4B2F2C08BF3EAD002D08B2003208B9
:101E5A00AD0004300310AD0CFF3E031D2F2F2D08DB
:101E6A00AE002E08B00032080F39AD002D08B100BF
:101E7A0030080A128A1538260A128A1583120313A1
:101E8A0031080A128A1538260A128A150800003003
:101E9A000A128A1554260A128A1503300A128A155A
:101EAA0038260A128A15213083120313AD007530C1
:101EBA00AC00AC0B5E2FAD0B5E2F632F03300A1202
:101ECA008A1538260A128A15483083120313AD0080
:101EDA006B30AC00AC0B6F2FAD0B6F2F742F033030
:101EEA000A128A1538260A128A1502300A128A1527
:101EFA0038260A128A1502300A128A1538260A1258
:101F0A008A1508300A128A1538260A128A150030EC
:101F1A000A128A1538260A128A150C300A128A15EC
:101F2A0038260A128A1500300A128A1538260A1229
:101F3A008A1506300A128A1538260A128A150800E6
:101F4A0083120313B701B41FAB2FAC2FB32FB309FE
:101F5A00B409B30A0319B40AB701B70AB21FB62FF4
:101F6A00B72FBC2FB109B209B10A0319B20A310855
:101F7A0032040319C12FC22FF12FB601B60AD02F8E
:101F8A0001300310B10DB20DFF3E031DC62F013003
:101F9A00B5003508B607B21FD32FD42FC52F320884
:101FAA003402031DDA2F31083302031CDD2FDE2F22
:101FBA00E42F3108B3023208031CB403B40201301F
:101FCA000310B20CB10CFF3E031DE52F0130B6021F
:101FDA00031DF02FF12FD42F37080319F52FF62FF1
:101FEA00FB2FB309B409B30A0319B40A3408B200BF
:061FFA003308B1000800ED
:08400000FF3FFF3FFF3FFF3FC0
:02400E00723FFF
:00000001FF
